:020000040800F2
:100000000031002081020008CF27000811250008D8
:10001000CD270008FF07000819290008000000008C
:10002000000000000000000000000000D3270008CE
:100030006108000800000000D1270008D52700084B
:100040009B0200089B0200089B0200089B0200081C
:100050009B0200089B0200089B0200089B0200080C
:100060009B0200089B0200089B0200089B020008FC
:100070009B0200089B0200089B0200089B020008EC
:100080009B0200089B0200089B020008250800084C
:10009000010800080D080008190800089B02000864
:1000A0009B0200089B0200089B0200089B020008BC
:1000B0009B0200089B0200089B0200089B020008AC
:1000C0009B0200089B0200089B0200089B0200089C
:1000D0009B020008E9280008F5280008012900080B
:1000E0009B0200089B0200089B0200089B0200087C
:1000F0009B0200089B0200089B0200089B0200086C
:100100009B0200089B0200089B0200089B0200085B
:10011000E92700089B0200089B0200089B020008D8
:100120009B0200089B0200089B0200089B0200083B
:100130009B0200089B0200089B020008550800086B
:10014000310800083D080008490800089B02000823
:100150009B0200089B0200089B0200080D29000872
:100160009B0200089B0200089B0200089B020008FB
:100170009B0200089B0200089B0200080000000090
:100180009B0200089B020008F527000801280008D0
:100190009B0200089B0200089B0200089B020008CB
:1001A00000000000000000009B02000800F002F8C0
:1001B00000F057F80AA090E8000C82448344AAF1AA
:1001C0000107DA4501D100F04CF8AFF2090EBAE8A8
:1001D0000F0013F0010F18BFFB1A43F0010318477B
:1001E00020790000407900000A4410F8014B14F017
:1001F0000F0508BF10F8015B240908BF10F8014B78
:100200006D1E05D010F8013B6D1E01F8013BF9D1C0
:10021000641E03D0641E01F8015BFBD19142E4D35C
:10022000704700000023002400250026103A28BF54
:1002300078C1FBD8520728BF30C148BF0B60704758
:100240001FB507F0BBFB00F093FA0400002000216B
:1002500007F082FB401C606000F0DCF91FBD10B5A8
:1002600010BD00F097FA1146FFF7EAFF07F0AAF871
:1002700000F0B5FA03B4FFF7F2FF03BC00F0B8FAE0
:100280000948804709480047FEE7FEE7FEE7FEE72A
:10029000FEE7FEE7FEE7FEE7FEE7FEE70448054966
:1002A000054A064B70470000D9270008AD01000839
:1002B000002B002000310020002D0020002D002008
:1002C00053EA020C00F069802DE9F04B4FF0000674
:1002D000002B1FBFB3FA83F503FA05F424FA05F6E1
:1002E0005E4012BF1643B2FA82F502FA05F4C5F178
:1002F00020051EBF22FA05FC44EA0C04203556EA0C
:10030000044C4FEA144418BF641C4FF000084FF02F
:100310000009904271EB030C39D3002919BFB1FADF
:1003200081F701FA07F6B0FA80F700FA07F6C7F18D
:1003300020071EBF20FA07FC46EA0C062037B6FB52
:10034000F4FCA7EB0507103F07F01F0BCBF12006CD
:100350000CFA0BFB2CFA06F644BFB3460026202FFE
:10036000A4BF5E464FF0000B5BEA060C08BF4FF0DF
:10037000010B19EB0B09ABFB027C48EB0608C01B19
:1003800006FB02CC0BFB03CC71EB0C01C1E70B4667
:10039000024641464846BDE8F08B13B54FF00000D9
:1003A0004FF00001AFF30080BDE81C4070472DE91D
:1003B000F04791460F4680460446002614F8015B3C
:1003C0002DB100F039F90068405DC007F6D12B2D42
:1003D00002D02D2D18D0641E4A463946204600F022
:1003E00042F927B13968A14201D1C7F800804FF026
:1003F000020471050BD54042002803DD00F024F90A
:100400000460A007BDE8F08746F48066E4E70028B2
:10041000F8DA00F019F904606FF00040F2E740EA02
:10042000010370B59B072ED14FF00136042A2AD361
:1004300008C810C99D1B9D43121F15EAC61517D089
:10044000D8B2E1B2401A50EA056110D198B2A1B217
:10045000401A50EA05410AD123F07F4024F07F4141
:10046000401A50EA052102D1180EA0EB146070BDAD
:10047000A342DBD018BA21BA884201D9012070BD4D
:100480004FF0FF3070BD0AB9002070BD10F8013B7D
:1004900011F8014B63B1A3420AD1521E08D010F8E3
:1004A000013B11F8014B1BB1A34201D1521EEDD10A
:1004B000181B70BD032A40F2308010F0030C00F0CE
:1004C000158011F8013BBCF1020F624498BF11F88E
:1004D00001CB00F8013B38BF11F8013BA2F1040247
:1004E00098BF00F801CB38BF00F8013B11F00303BF
:1004F00000F00881083AC0F0088051F8043B083A3F
:1005000051F804CBA0E80810F5E7121D5CBF51F8C4
:10051000043B40F8043BAFF30080D20724BF11F83E
:10052000013B11F801CB48BF11F8012B24BF00F8A3
:10053000013B00F801CB48BF00F8012B70474FF09A
:10054000000200B5134694469646203922BFA0E823
:100550000C50A0E80C50B1F12001BFF4F7AF09072F
:1005600028BFA0E80C5048BF0CC05DF804EB890020
:1005700028BF40F8042B08BF704748BF20F8022B63
:1005800011F0804F18BF00F8012B70474FF0013C6D
:1005900050F8042B51F8043B9A4221D1A2EB0C03F2
:1005A000934313EACC1317D150F8042B51F8043BB2
:1005B0009A4215D1A2EB0C03934313EACC130BD14F
:1005C00050F8042B51F8043B9A4209D1A2EB0C03DA
:1005D000934313EACC13DBD04FF00000704700BF09
:1005E000D01A01BAB1FA81F101F0180122FA01F032
:1005F000CB40C1F12001DBB2C0B2C01A2CFA01F32A
:10060000D11A914311EAC311E6D170477047704780
:100610007047000070B5064C7C44064D7D4403E0F5
:10062000206820448047241DAC42F9D170BD0000F1
:10063000147600001476000010B500F099F8001D43
:1006400010BD00BF15730000004870479C2A0020B1
:1006500010B5FFF7F9FF006810BD10B50446FFF7AD
:10066000F3FF046010BD2DE9F05F824615468B460E
:1006700000270AF10104B9460078302801D09DB165
:1006800013E014F8010B0127782803D0582801D073
:1006900045B10AE00DB1102D07D1002714F8010B68
:1006A000102502E0082500E00A250026B0460EE0ED
:1006B00005FB080005FB06F101271FFA80F801EB96
:1006C0001046B6F5803F00D3B94614F8010B294611
:1006D00000F052F80028EBDABBF1000F05D00FB1A3
:1006E000641E00E05446CBF80040B9F1000F06D07C
:1006F000FFF7AAFF02210160C81EBDE8F09F48EA8B
:100700000640FAE710B5203AC0F00B80B1E8185067
:10071000203AA0E81850B1E81850A0E81850BFF4EB
:10072000F5AF5FEA027C24BFB1E81850A0E818508A
:1007300044BF18C918C0BDE810405FEA827C24BFDE
:1007400051F8043B40F8043B08BF7047D20728BF6C
:1007500031F8023B48BF11F8012B28BF20F8023BBB
:1007600048BF00F8012B7047004870479C2A0020C2
:1007700000487047BC2A00203A2800D2303820F0C8
:100780002002412A01D3A2F13700884201D34FF061
:10079000FF3070477546FFF7E7FFAE460500694634
:1007A000534620F00700854618B020B5FFF776FDC8
:1007B000BDE820404FF000064FF000074FF0000862
:1007C0004FF0000B21F00701AC46ACE8C009ACE8E3
:1007D000C009ACE8C009ACE8C0098D46704710B547
:1007E0000446AFF300802046BDE81040FFF742BD4D
:1007F00001491820ABBEFEE7260002007047FEE765
:10080000014800F0B3B9000094010020014800F055
:10081000ADB9000094010020014800F0A7B9000024
:1008200094010020014800F0A1B9000094010020CB
:10083000014800F09BB90000BC010020014800F015
:1008400095B90000BC010020014800F08FB90000FC
:10085000BC010020014800F089B90000BC01002063
:10086000704772B6FEE7F0B590F820500468A468AF
:10087000012D07D0022D05D0416A41F4802141624B
:100880000120F0BD04F0806504F00066354301D11D
:10089000E50053D5C4F301640125A5401D608B68B4
:1008A0004FF4C0759BB1CE6805EB041733434E6817
:1008B00043EAC6030668F3514FF4C273076803EBBB
:1008C00004130E69FE50097D012909D00DE00E8840
:1008D000CB6805EB041743EA46530668F351EBE790
:1008E0000168CE5846F48076CE501179D379567986
:1008F00041EA036193791B0443EA062319434FF449
:10090000C676036806EB041699511178D37841EA4C
:100910000361937852781B0443EA022211434FF497
:10092000C473026803EB0413D150006805EB041193
:10093000425842F0010242500020F0BD416A41F4A9
:10094000001141620120F0BD10B590F82020012A6D
:1009500007D0022A05D0416A41F48021416201207A
:1009600010BD3C4800F50070026842F001020260D0
:10097000026822F47C52026002684B6A42EA032257
:1009800002600A7D02F01F0301229A40C36993436B
:10099000C361A0F50070CB69B3B9D0F80C329343B2
:1009A000C0F80C328C894B6864F31F434C6900EB30
:1009B000C404C4F840320C890B6864F31F434C69CB
:1009C00000EBC404C4F84432CB69012B16D1D0F833
:1009D0000C321343C0F80C320C884B6864F31F438D
:1009E0004C6900EBC404C4F840320C89CB6864F352
:1009F0001F434C6900EBC404C4F844328B697BB1DB
:100A0000D0F804321343C0F804320B6973B1D0F844
:100A100014321343C0F81432096A01290CD010E0D3
:100A2000D0F804329343C0F80432EEE7D0F8143221
:100A30009343C0F81432EFE7D0F81C121143C0F80A
:100A40001C12D0F8001221F00101C0F800120020A1
:100A500010BD000000640040704770B590F8204061
:100A6000012C07D0022C05D0416A41F4802141625B
:100A7000012070BD21B104682469A4072AD003E0D5
:100A80000468E468A4071FD04FF4D874056804EB29
:100A900001142D5905F0040595600DB305682D5915
:100AA000ED08556005682C5904F00204D4604FF439
:100AB000DA74056804EB01142E5906F00F06082EAF
:100AC00013D30825156114E0416A41F40011416215
:100AD000012070BD416A41F400114162012070BDE6
:100AE00005682D596D0D1560DCE72D5905F00F05D2
:100AF000156105682D59C5F30725956105682C59C1
:100B0000240C54614FF4DC72046802EB0112A45807
:100B10001C700468A458240A5C700468A458240C4F
:100B20009C700468A258120EDA704FF4DE720468EA
:100B300002EB0112A4581C710468A458240A5C71C9
:100B40000468A458240C9C710468A258120EDA712F
:100B500031B10068016941F020010161002070BDE0
:100B60000068C16841F02001C160F7E72DE9F05F3E
:100B70000546002428684669D0F804908768D0F8B4
:100B80000CA0D0F810B0D0F81880F10748D0F907C1
:100B900014D001218160B80703D5284600F0C0FABF
:100BA0000CE0780702D54FF4006407E0380702D55F
:100BB0004FF4805402E0284600F0B1FAF80516D54B
:100BC00029684FF480708860B80503D5284600F086
:100BD000A9FA0CE0780502D544F4005407E0380582
:100BE00002D544F4804402E0284600F09AFAF80363
:100BF00016D529684FF480308860B80303D528469D
:100C000000F092FA0CE0780302D544F4004407E0C7
:100C1000380302D544F4803402E0284600F083FA19
:100C2000300707D55FEACA6004D544F40074296828
:100C30001020C86070074FF0080707D55FEA0A70F8
:100C400004D52868C760284600F0E8F9B00706D543
:100C50002868C068800702D0284600F0E1F97006D5
:100C600007D55FEACB6004D544F48064296810207E
:100C70000861B00607D55FEA0B7004D528680761E4
:100C8000284600F0F5F9F00606D5286800698007C7
:100C900002D0284600F0EEF9B00308D55FEAC9603B
:100CA00005D5296810204860284600F00BFAF003AB
:100CB00007D55FEA097004D528684760284600F028
:100CC00034FA300446D55FEA497040D5F00504D5C2
:100CD0005FEAC87001D044F00104B00504D55FEAB2
:100CE000887001D544F00204700504D55FEA4870AD
:100CF00001D544F00404300529D518F0700F26D032
:100D000008F07000402815D006DC102809D02028F3
:100D10000AD0302816D10AE050280ED0602811D110
:100D20000EE044F008040DE044F010040AE044F042
:100D3000200407E044F0400404E044F0800401E0B3
:100D400044F480742868816921F070018161296808
:100D500004204860002C05D0686A20436862284659
:100D6000FFF77AFEBDE8F09F70B50446002C03D073
:100D700094F8200010B104E0012070BD204600F07E
:100D80009DF82068016841F00101016000F05CFB02
:100D9000054605260CE000F057FB401B0A2807D942
:100DA000606A40F40030606284F82060012070BD09
:100DB00020684068C007EED02068016821F0020179
:100DC000016000F041FB05460CE000F03DFB401BDC
:100DD0000A2807D9606A40F40030606284F8206015
:100DE000012070BD206840688007EED4207E012875
:100DF0003FD02068016821F080010160607E0128F9
:100E00003DD02068016821F040010160A07E0128EA
:100E10003BD02068016821F020010160E07E0128BC
:100E200039D02068016841F010010160207F01285D
:100E300037D02068016821F008010160607F012837
:100E400035D02068016821F004010160D4E9020175
:100E50000843D4E90412114308436168491E08435A
:100E60002168C86100206062012084F82000002011
:100E700070BD2068016841F080010160BEE7206814
:100E8000016841F040010160C0E72068016841F05D
:100E900020010160C2E72068016821F010010160B3
:100EA000C4E72068016841F008010160C6E72068D6
:100EB000016841F004010160C8E700002DE9F0413C
:100EC00086B00446142101A8FFF739FB4E4B4F4A68
:100ED000DFF83081186821684C4C03260227401C3B
:100EE000103200254FF0090C41453FD11860012810
:100EF00007D1106840F000701060106800F00070BA
:100F00000090206840F008002060206800F0080091
:100F100000900196029703950496CDF814C001A99C
:100F20003B4800F093F900221146132000F0FCFA30
:100F3000132000F0EBFA00221146142000F0F4FA1E
:100F4000142000F0E3FA00221146152000F0ECFA1C
:100F5000152000F0DBFA00221146162000F0E4FA1A
:100F6000162000F0D3FA06B0BDE8F081DFF8A480C7
:100F70004145F8D1116841F080611160116801F0BC
:100F8000806100911860012807D1106840F000705E
:100F90001060106800F000700090206840F00200BF
:100FA0002060206800F0020000904FF44050019053
:100FB000029703950496CDF814C001A9164800F0D5
:100FC00045F9002211463F2000F0AEFA3F2000F024
:100FD0009DFA00221146402000F0A6FA402000F0C1
:100FE00095FA00221146412000F09EFA412000F0BF
:100FF0008DFA00221146422000F096FA422000F0BD
:1010000085FAB0E70064004000000020303802405C
:10101000000C0240006800400004024070470000DD
:1010200010B5104A016891420BD10F4B0021A3F17A
:101030002004221DFFF711FD201DA16ABDE810400C
:1010400008470A4A91420CD1074B00212C33A3F1E7
:101050002004221DFFF701FD201DA16ABDE81040FC
:10106000084710BD006400403418002000680040AC
:101070007047000010B5104A016891420BD10F4B28
:101080000121A3F12004221DFFF7E7FC201DA16A26
:10109000BDE8104008470A4A91420CD1074B012194
:1010A0002C33A3F12004221DFFF7D7FC201DA16AD9
:1010B000BDE81040084710BD00640040341800200F
:1010C00000680040704770B5044694F8200001287D
:1010D00005D0606A40F400206062012070BD0220EB
:1010E00084F820002068016821F00101016000F00F
:1010F000ABF905460DE000F0A7F9401B0A2808D916
:10110000606A40F400306062052084F8200001200D
:1011100070BD20684068C007EDD1606270BD704747
:101120007047704770477047704770472DE9F0412E
:101130000446A76D00F088F9054694F835000026AE
:10114000022806D08020606584F834600120BDE864
:10115000F0812068016821F0160101602068416972
:1011600021F080014161206C08B9A06C20B1206899
:10117000016821F0080101602068016821F0010187
:1011800001600BE000F060F9401B052806D9202023
:1011900034342062032060702670D8E7206800682D
:1011A000C007EFD134343F2094F828108840B8604D
:1011B0000120607026700020C9E790F835100229E0
:1011C00003D08021416501207047052180F835104A
:1011D0000068016821F001010160002070472DE9DD
:1011E000F04104460025A66D94F8340001280DD086
:1011F000012084F8340094F835700020012F07D0C6
:1012000084F8340002252846BDE8F0810220FBE77F
:10121000022784F835706065204605F00DFB94F8D0
:101220005C103F208840B0602068016841F01601E2
:101230000160206C20B12068016841F00801016064
:101240002068016841F001010160DCE72DE9F84FF9
:101250000022DFF8B0914FF0010803274FF00F0C88
:1012600009F1040AA9F1040B08FA02F50B682B40F6
:10127000AB426ED10C7904F00304012C01D0022C96
:1012800015D18668540007FA04FE26EA0E06D1F846
:101290000CE00EFA04FE4EEA060EC0F808E04468C0
:1012A000AC430D79C5F300159540254345600C7995
:1012B000E443A40708D0C568540007FA04F6B54310
:1012C0008E68A6402E43C6600C7904F00304022CFD
:1012D00011D1D40800EB8406356A5407E40E0CFAE9
:1012E00004FE25EA0E05D1F810E00EFA04FE4EEADF
:1012F000050EC6F820E00568540007FA04F6B54369
:101300000E7906F00306A6402E4306604C6814F4DE
:10131000403F71D03C4C256845F4804525602468E9
:1013200004F480440094394C22F003052E19D6F8B9
:10133000085894074FEA147E0CFA0EF4A543344C77
:10134000A04201D100242EE0324CA04202D101245F
:1013500029E051E0304CA04201D1022423E02F4C7F
:10136000A04201D103241EE02D4CA04201D104244F
:1013700019E02C4CA04201D1052414E02A4CA042D3
:1013800001D106240FE0294CA04201D107240AE034
:10139000274CA04201D1082405E0264CA04201D1EF
:1013A000092400E00A2404FA0EF42C43C6F8084885
:1013B000D9F800409C434D68ED0200D51C43C9F8A4
:1013C0000040DAF800409C434D68AD0200D51C4354
:1013D000CAF80040DBF800409C434D68AD0300D5DF
:1013E0001C43CBF80040074D083D2C689C434E68D9
:1013F000F60300D51C432C60521C102AFFF434AFB6
:10140000BDE8F88F083C01404438024000300140FC
:10141000000002400004024000080240000C0240AC
:10142000001002400014024000180240001C02405C
:101430000020024000240240002A01D08161704750
:10144000090481617047000001488068704700000E
:10145000440100200248816802781144816070478D
:101460004401002010B50B48016841F4007101608F
:10147000016841F480610160016841F4807101609C
:10148000032000F071F80F2000F006F800F026F8B5
:10149000002010BD003C024070B504460D4D4FF4D5
:1014A0007A712878B1FBF0F00B490968B1FBF0F0D4
:1014B00000F088FB08B1012070BD102C07D200227B
:1014C0002146501E00F030F86C60002070BD0120F5
:1014D00070BD0000440100205001002008B50A48FA
:1014E000016841F480410160006800F48040009090
:1014F0000548001F016841F080510160006800F05C
:101500008050009008BD000044380240002809DBEC
:1015100000F01F02012191404009800000F1E0200D
:10152000C0F8001170470000F0B40D460D4B1B6869
:10153000C3F30223C3F10704042C00D90424191DAA
:10154000072901D2002300E0DB1E012606FA04F180
:10155000491E294099409E40761E16403143F0BCFA
:1015600005F05CBB0CED00E000F00701054A1068D7
:101570004FF6FF03184040EA01200349084310607A
:10158000704700000CED00E00000FA052DE9F8437B
:101590001848016841F080510160006800F08050F7
:1015A0000090DFF854800127C8F84070FFF74CFF27
:1015B00005464FF47A76114C07E0FFF745FF401BD4
:1015C000B04202D90320BDE8F8836068C003F4D5B7
:1015D000C8F84470FFF738FF054606E0FFF734FF10
:1015E000401BB04201D90320EDE760688003F5D5C8
:1015F0000020E8E74038024000000E420070004042
:101600002DE9F04704460D46002C13D0DFF8289151
:10161000D9F80000EFB200F00F00A8420CD289F810
:101620000070D9F8000000F00F00A84204D001209B
:10163000BDE8F0870120FBE72068404E810712D506
:10164000400703D5306840F4E05030602078000750
:1016500003D5306840F4604030603068A16820F005
:10166000F000084330602078C00731D0334960680B
:101670000839012808D002280BD0032809D00968AE
:1016800089070BD40120D3E70968890306D4012018
:10169000CEE70968890101D40120C9E7316821F04A
:1016A000030101433160FFF7CFFE804641F2883AE3
:1016B00007E0FFF7C9FEA0EB0800504501D9032061
:1016C000B6E73068616800F00C00B0EB810FF0D134
:1016D000D9F8000000F00F00A84209D989F800707D
:1016E000D9F8000000F00F00A84201D001209FE7C8
:1016F0002078400705D53068E16820F4E0500843C1
:1017000030602078000706D53068216920F46040F9
:1017100040EAC100306000F03FF83168084AC1F388
:101720000311515CC8400749086007480068FFF78B
:10173000B3FE00207CE70000003C02400838024075
:10174000C6790008500100204801002001480068C7
:10175000704700005001002000B5FFF7F7FF044973
:101760000968044AC1F38221515CC84000BD0000F1
:1017700008380240D679000800B5FFF7E7FF0449B2
:101780000968044AC1F34231515CC84000BD000001
:1017900008380240D679000810B51748006810F0E4
:1017A0000C01164816D0164B042912D0082911D165
:1017B000114C241F216801F03F02216849020AD51B
:1017C0002068C0F38810A0FB03010023FEF778FD1A
:1017D00009E0184610BD21680023C1F38811A1FB60
:1017E0000001FEF76DFD2168C1F30141491C49006C
:1017F000B0FBF1F010BD0000083802400024F400F6
:10180000001BB7002DE9F84F0446002C13D02078B8
:10181000DFF8A083C007A8F1040556D008F1040042
:101820000168C1F3810101290CD00068C0F3810077
:10183000022803D00DE00120BDE8F88FD8F80000A1
:10184000400206D5286880033FD5606870BB012040
:10185000F2E76068B0F5803F10D0B0F5A02F12D04D
:10186000286820F480302860286820F480202860D0
:101870006068E0B1FFF7E8FD064614E0286840F430
:1018800080302860F4E7286840F4802028602868C9
:1018900040F480302860EBE7FFF7D6FD801B64281A
:1018A00001D90320C8E728688003F5D50DE0FFF7CC
:1018B000CBFD064606E0FFF7C7FD801B642801D973
:1018C0000320B9E728688003F5D42078BA4F800751
:1018D0004FF0000948D5B748001D016811F00C0F02
:1018E00008D00068C0F38100022813D1D8F80000A6
:1018F00040020FD42868800704D5E068012801D091
:10190000012099E72868216920F0F80040EAC10029
:10191000286029E0E068B8B101203860FFF794FD45
:10192000064606E0FFF790FD801B022801D9032040
:1019300082E728688007F5D52868216920F0F8003B
:1019400040EAC10028600FE0C7F80090FFF77CFD77
:10195000064606E0FFF778FD801B022801D9032028
:101960006AE728688007F5D42078000729D5DFF8D2
:1019700044A2924861690AF1700A89B101210160AB
:10198000FFF762FD064606E0FFF75EFD801B0228BA
:1019900001D9032050E7DAF800008007F4D510E001
:1019A000C0F80090FFF750FD064606E0FFF74CFD3B
:1019B000801B022801D903203EE7DAF800008007E7
:1019C000F4D42078400778D54FF0000A79483C30AD
:1019D0000068C0000BD477483C30016841F080516A
:1019E0000160006800F0805000904FF0010ADFF8BD
:1019F000D0B1DBF80000C00514D4DBF8000040F4DF
:101A00008070CBF80000FFF71FFD064606E0FFF7E9
:101A10001BFD801B022801D903200DE7DBF8000025
:101A2000C005F4D5634EA0686C3601280FD0052898
:101A300012D0306820F001003060306820F00400DF
:101A40003060A068F8B1FFF7FFFC834617E030680C
:101A500040F001003060F4E7306840F0040030608E
:101A6000306840F001003060EBE7FFF7EDFCA0EBE1
:101A70000B0141F28830814201D90320DCE6306855
:101A80008007F2D510E0FFF7DFFC834609E0FFF79F
:101A9000DBFCA0EB0B0141F28830814201D903202D
:101AA000CAE630688007F2D4BAF1010F05D1414887
:101AB0003C30016821F080510160A069C0B33D490C
:101AC000091D09684FF0FF36C1F38101022946D094
:101AD000022805D0C7F86090FFF7B6FC04463AE04C
:101AE000C7F86090FFF7B0FC814607E0FFF7ACFC59
:101AF000A0EB0900022801D903209DE62868800197
:101B0000F4D4D4E907010843616AA26A890106EBAB
:101B1000520241EA0241084394F82C1040EA016065
:101B2000C8F8000001203866FFF78EFC044607E085
:101B30003DE0FFF789FC001B022801D903207BE66A
:101B400028688001F5D532E0FFF77EFC001B0228F3
:101B500001D9032070E628688001F5D427E0012828
:101B600023D0D8F80000E26900F4800191421AD134
:101B7000226A00F03F01914215D147F6C071626AB6
:101B80000140B1EB821F0ED1A26A00F4403106EB96
:101B90005202B1EB024F06D194F82C1000F07060A5
:101BA000B0EB016F03D0012046E6012044E600209F
:101BB00042E600000438024000004742800E4742DF
:101BC0000070004010B5401EB0F1807F01D30120AD
:101BD00010BD4FF0E02460610F21601705F01EF882
:101BE0000020A06107202061002010BD38B5044608
:101BF00094F84200202801D0022038BD71B16AB1AA
:101C00000120206300206063204600F0FFFD0346B2
:101C1000206B012804D00123184638BD012038BDAF
:101C2000206801684068009020680C3050E8001F70
:101C300041F0100140E80012002AF5D1ECE7000065
:101C400070B50446484A206890420ED1474D05F5CC
:101C50008270D5F8082206469047B5F8042231462E
:101C60002046BDE87040FFF7C1BF414A90420ED107
:101C7000404D05F58270D5F8082206469047B5F824
:101C8000042231462046BDE87040FFF7AFBF3A4A14
:101C900090420ED1394D05F58270D5F808220646DE
:101CA0009047B5F8042231462046BDE87040FFF762
:101CB0009DBF334A90420ED1324D05F58270D5F862
:101CC000082206469047B5F8042231462046BDE872
:101CD0007040FFF78BBF2C4A90420ED12B4D05F57B
:101CE0008270D5F8082206469047B5F8042231469E
:101CF0002046BDE87040FFF779BF254A90420ED1DB
:101D0000244D05F58270D5F8082206469047B5F8AF
:101D1000042231462046BDE87040FFF767BF1E4AE7
:101D200090420ED11D4D05F58270D5F80822064669
:101D30009047B5F8042231462046BDE87040FFF7D1
:101D400055BF174A90420ED1164D05F58270D5F851
:101D5000082206469047B5F8042231462046BDE8E1
:101D60007040FFF743BF70BD001001406C180020A9
:101D700000440040781A002000480040841C0020E5
:101D8000004C0040901E0020005000409C2000208D
:101D900000140140A822002000780040B424002054
:101DA000007C0040C026002070470000F8B50446C3
:101DB00022681068D168536900F00F06002E08D120
:101DC000850606D58D0604D52046BDE8F84004F00A
:101DD000F7BD0025002E66D003F0010601F49077D0
:101DE000374360D0C20705D0CA0503D5626C42F004
:101DF00001026264420705D5DA0703D0626C42F043
:101E000002026264820705D5DA0703D0626C42F0F1
:101E100004026264020707D501F02002324303D0B6
:101E2000626C42F008026264626C002A31D0800663
:101E300004D5880602D5204604F0C2FD206840691A
:101E4000C0F38010616C090700D438B3204604F059
:101E500059FE2068406940061CD52068143050E8BF
:101E6000001F21F0400140E80012002AF5D1E06B8C
:101E700060B15F490165E06BFFF79FF9002808D06A
:101E8000E06B016D01B0BDE8F04008472046FFF768
:101E90008BFFF8BD2046FFF787FFF8BD2046FFF710
:101EA00083FF6564F8BD236B012B7DD1C3067BD511
:101EB000CB0679D510685068009050694FF0200328
:101EC00040064FF002064FD5E26B1068406880B2C2
:101ED000DF00E8B3A18D81423BD9E085D069B842EB
:101EE0002DD020680C3050E8001F21F4807140E8AC
:101EF0000012002AF5D12068143050E8001F21F0AC
:101F0000010140E80012002AF5D12068143050E8A1
:101F1000001F21F0400140E80012002AF5D184F8AA
:101F20004230256320680C3050E8001F21F010017A
:101F300040E80012002AF5D1E06BFFF7F7F866637E
:101F4000A08DE18D401A81B22046FFF779FEF8BDE1
:101F5000FFE7A18D8142FAD1D069B842F7D166631B
:101F60002046FFF76DFEF2E7A08DE18D401A81B2A9
:101F7000E08D0028EBD00029E9D020680C3050E833
:101F8000002F22F4907240E80027002FF5D120683E
:101F9000143050E8002F22F0010240E80027002F03
:101FA000F5D184F8423000E00FE0256320680C3062
:101FB00050E8002F22F0100240E80023002BF5D15A
:101FC00066632046FFF73CFEC1E7020606D50A0617
:101FD00004D52046BDE8F84004F056BD4006B6D50D
:101FE0004806B4D52046BDE8F84004F003BE000022
:101FF0000F6C000870B50446002C04D094F8410022
:10200000002510B106E0012070BD84F84050204644
:1020100000F024F8242084F841002068C16821F4ED
:102020000051C160204604F041FC2068016921F4A0
:10203000904101612068416921F02A0141612068D5
:10204000C16841F40051C1606564202084F84100FA
:1020500084F842006563002070BD00002DE9F04364
:1020600087B00446142102A8FEF769FA9D4A9C48ED
:10207000216800249B4B103A03250226DFF8688272
:102080004FF0080C814224D1186840F400201860F9
:10209000186800F400200190106840F00100106002
:1020A000106800F0010001900295039604940595D4
:1020B000CDF818C002A94046FFF7C8F80022114623
:1020C0003420FFF731FA3420FFF720FA07B0BDE8DB
:1020D000F083864F8648B94223D1196841F0804188
:1020E0001960196801F080410191116841F01001F7
:1020F0001160116801F0100101914FF4C07102915B
:10210000039604940595CDF818C002A9FFF79EF830
:10211000002211465220FFF707FA5220FFF7F6F986
:10212000D4E7744FB94221D1196841F000411960D8
:10213000196801F000410191116841F0100111602E
:10214000116801F010010191029503960494059520
:10215000CDF818C002A9FFF779F8002211465320E4
:10216000FFF7E2F95320FFF7D1F9AFE76248DFF854
:102170007491072709F10409814238D1D9F8000088
:1021800040F01000C9F80000D9F8000000F010007D
:102190000190106840F002001060106800F002002A
:1021A0000190106840F001001060106800F001001C
:1021B000019080200290039604940595069702A949
:1021C0004E48FFF743F84FF40070029003960494D2
:1021D0000595069702A94046FFF738F800221146F8
:1021E0002520FFF7A1F92520FFF790F96EE7DFF82A
:1021F00010814448414521D1196841F400311960EA
:10220000196801F400310191116841F00801116071
:10221000116801F008010191602102910396049474
:102220000595069702A9FFF711F80022114626200E
:10223000FFF77AF92620FFF769F947E7DFF8C8804A
:10224000414522D1196841F480211960196801F4CF
:1022500080210191116841F008011160116801F0BD
:10226000080101914FF44071029103960494059581
:10227000069702A9FEF7EAFF002211462720FFF782
:1022800053F92720FFF742F920E720488142ADD1DA
:10229000D9F8000040F02000C9F80000D9F800008B
:1022A00000F020000190106840F0400010601068BD
:1022B00000F0400001904FF4844002900396049493
:1022C0000595CDF818C002A91148FEF7BFFF0022FE
:1022D00011464720FFF728F94720FFF717F9F5E6E1
:1022E000004C0040403802400000024000780040AE
:1022F00000100240007C0040001001400004024039
:1023000000440040000C024000480040001401401E
:102310000018024090F84230202B01D00220704774
:1023200021B11AB10023036300F0C2BA0120704743
:1023300070B500685549564C884207D104F11B011D
:10234000BDE8704001225348FFF7E4BF524988427C
:102350006ED1FFF779F8206394F82A00002528B998
:1023600020785A2802D0A178D9B35AE0207805F015
:10237000CDF994F82A00052834D2DFE800F0030CE8
:102380001519250020785A2803D0002084F82A0047
:102390002AE00120FAE72078A52803D0002084F85D
:1023A0002A0021E00220FAE7032084F82A001BE03B
:1023B000207884F82B0084F82C5018B1042084F87D
:1023C0002A0011E00520FAE72B346078401CC0B2E7
:1023D000607014F82B19884206D3052084F82A006F
:1023E00002E008E084F82A50BDE870400122284944
:1023F0002A48FFF78FBF2A4A0A2809D00D2807D09C
:1024000061784F290CD261784B1C6370505408E0FE
:10241000607830B1607815540120A070657000E0DC
:102420006570BDE87040012219491C48FFF772BF72
:102430001C4988420BD1617D002005F06DF8BDE894
:1024400070401349012215311748FFF763BF174940
:1024500088420AD1207E00F08FFABDE870400C4916
:10246000012218311248FFF755BF124988420BD19B
:10247000A17D012005F050F8BDE87040044901221B
:1024800016310D48FFF746BF70BD00000010014037
:1024900004000020BC020020004800404C03002043
:1024A000DC03002000140140940300200078004069
:1024B0002C020020007C004074020020704790F83D
:1024C0004130202B01D00220704779B172B10162F6
:1024D0008284C28400214164212180F84110006877
:1024E000C16841F08001C160002070470120704741
:1024F00000680549884201D103F0C6B90349884202
:1025000001D103F013BC704700480040004C00406C
:10251000FEE7000010B50F480D4901600921416038
:1025200000218160C1604FF480320261120142617A
:10253000017641768176C17601774177FEF714FC0A
:10254000002803D0BDE81040FEF78BB910BD000095
:10255000006400409401002010B50F480D4901604F
:102560000921416000218160C1604FF48032026125
:1025700012014261017641768176C1760177417719
:10258000FEF7F2FB002803D0BDE81040FEF769B962
:1025900010BD000000680040BC01002070B586B08E
:1025A000142101A8FDF7CBFF00252E48016841F05A
:1025B00010010160016801F010010091016841F013
:1025C00040010160016801F040010091016841F0A3
:1025D00001010160016801F001010091016841F011
:1025E00002010160016801F002010091016841F0FF
:1025F00008010160016801F008010091016841F4DF
:1026000080710160016801F480710091016841F0FE
:1026100080010160006800F080000090124E0022EE
:10262000E0213046FEF708FFE021019101240294E9
:102630000394049501A93046FEF708FE4FF4E050DC
:1026400001900295039401A90848FEF7FFFD4FF49D
:10265000704001900295039401A90548FEF7F6FD2C
:1026600006B070BD3038024000200240001C02401D
:10267000000C024010B50C480A4901604FF4E131EA
:10268000416000218160C16001610C224261816171
:10269000C161FFF7AFFC002803D0BDE81040FEF792
:1026A000E0B810BD004C0040E401002010B50C481B
:1026B0000A4901604FF41651416000218160C160F8
:1026C00001610C2242618161C161FFF793FC002826
:1026D00003D0BDE81040FEF7C4B810BD007800403C
:1026E0002C02002010B50C480A4901604FF4E1317A
:1026F000416000218160C16001610C224261816101
:10270000C161FFF777FC002803D0BDE81040FEF759
:10271000A8B810BD007C00407402002010B50D4820
:102720000B4901600C494160002181604FF4005267
:10273000C260D21002610C2242618161C161FFF767
:1027400059FC002803D0BDE81040FEF78AB810BD40
:1027500000100140BC020020A086010010B50C480A
:102760000A4901604FF4E131416000218160C1609C
:1027700001610C2242618161C161FFF73BFC0028CD
:1027800003D0BDE81040FEF76CB810BD0048004013
:102790004C03002010B50C480A4901604FF4E131A8
:1027A000416000218160C16001610C224261816150
:1027B000C161FFF71FFC002803D0BDE81040FEF701
:1027C00050B810BD0014014094030020FEE7FEE75E
:1027D00070477047FEF73EBE0248016841F4700141
:1027E0000160704788ED00E00148FFF7DFBA0000A4
:1027F000E40100200148FFF7D9BA00002C020020B4
:102800000148FFF7D3BA00007402002037B582B048
:1028100004461346039AA262A38500206064222125
:1028200084F84210E56B1F49E963E56B1E49296492
:10283000E56B1E49E964E16B08652168E06B091DE1
:10284000FEF7CDFC38B110206064202084F84200EF
:10285000012005B030BD2068016840680190206902
:1028600048B120680C3050E8001F41F4807140E806
:102870000012002AF5D12068143050E8001F41F002
:10288000010140E80012002AF5D12068143050E818
:10289000001F41F0400140E80012002AF5D100205D
:1028A000D7E700006F6B0008E76A0008636800085C
:1028B00081628285C28500214164222180F8421014
:1028C0000169002904D00168CA6842F48072CA60B4
:1028D00001684A6942F001024A610068C16841F03A
:1028E0002001C160002070470148FFF75FBA000077
:1028F000BC0200200148FFF759BA00000403002081
:102900000148FFF753BA00004C0300200148FFF7CD
:102910004DBA000094030020FEE70000024610219B
:102920000148FEF789BD0000001C0240024620213C
:102930000148FEF781BD0000001C02400246042150
:102940000148FEF779BD0000001C02400246082144
:102950000148FEF771BD0000001C024000B587B0C1
:102960000191002102910391049105936B4601A905
:10297000FDF779FF07B000BD10B52DED028B274C98
:102980002178002901D1552832D14A1CD3B2244ADA
:10299000237050540B2B2BD3002020700021135C8C
:1029A0001944C9B2401CC0B20A28F8D3907A8842B0
:1029B0001ED150789FED1B8A52281CD0532817D166
:1029C000D179907903F054FB00EE100ADFED160A7E
:1029D0001648B8EEC00A20EE080A20EE200A80ED64
:1029E000000A134901200870FEF72EFD1149086006
:1029F000BDEC028B10BDD179907903F039FB00EE6C
:102A0000100ADFED0D0A0D48B8EEC00A20EE080AE4
:102A100020EE200A80ED000AEAE700008C01002089
:102A200090290020000000380000344320010020DD
:102A3000280100202C0100200000FA44D8000020CA
:102A4000026800F11C01A2F20122082A21D2DFE86B
:102A500002F004070B0E1215191C0E4802F0F4BC0C
:102A60000C48F83002F0F0BC0B4802F0EDBC0A480C
:102A7000F83002F0E9BC094802F084BB0748F8309E
:102A800002F080BB064802F07DBB0548F83002F03A
:102A9000DBBC70472C0400201C060020EC0B00203F
:102AA000DC0D002010B5026800F11C01A2F2012229
:102AB000072A22D2DFE802F004090F141A222700A5
:102AC000BDE81040134802F0BFBC1248BDE81040FA
:102AD000F83002F0B9BCBDE810400F4802F0B4BCB9
:102AE0000D48BDE81040F83002F0AEBC0B4802F0D3
:102AF00049FBFEF7A9FC0A49886210BDBDE81040F9
:102B0000084802F0A1BC0548BDE81040F83802F0C2
:102B10009BBC00000C080020FC090020BC11002018
:102B200084000020CC0F002030EE600ADFED090A9F
:102B3000094901E030EE600A10EE100A8842F9DC23
:102B4000064801E030EE200A10EE101A8142F9D852
:102B5000704700000000B44300003443000034C359
:102B600010B52DED048B9FED538AB3EE030A0323BA
:102B7000F0EE480A01225049504802F03DFD4F480E
:102B8000F0EE480AB3EE030A032302224A49F83062
:102B900002F032FD0323F0EE480AB3EE030A1A46B0
:102BA0004549474802F028FD4548F0EE480AB3EE93
:102BB000030A032304224049F83002F01DFDDFED33
:102BC000418AF0EE680A9FED409A02230522B0EE9A
:102BD000490A39493D4802F0B1FB3C48F0EE680A29
:102BE000B0EE490A022306223349F83002F0A6FB70
:102BF000F0EE680AB0EE490A022307222E49344853
:102C000002F09CFB3248F0EE480AB3EE030A0323BD
:102C100008222949F83002F0EFFCF0EE480AB3EE42
:102C2000030A032301222B492B4802F0E5FC2A4822
:102C3000F0EE480AB3EE030A032302222549F830D6
:102C400002F0DAFC0323F0EE480AB3EE030A1A4658
:102C50002049224802F0D0FC1C48F0EE480AB3EEAE
:102C6000030A032304221B49F83802F0C5FCF0EEE6
:102C7000680AB0EE490A022305221649184802F0F4
:102C80005DFBF0EE480AB3EE030A03230622114966
:102C9000144802F0B1FCF0EE480ABDEC048B0323AB
:102CA00007220F48BDE81040B3EE030A0949F8387F
:102CB00002F0A2BC00008046940100202C040020F9
:102CC0001C06002000401C4600001042EC0B0020B7
:102CD000DC0D0020BC0100200C080020FC090020B5
:102CE000BC110020CC0F002010B52DED068B00206C
:102CF00001F002FE00219FEDFE8AB0EE485AF0EE90
:102D0000484AB0EE484AF0EE483A9FEDFA9AF1EEA2
:102D1000002AB0EE482AB0EE493AF0EE481AB0EE7A
:102D2000481AF0EE480AB1EE000AF34804F06CF8D5
:102D3000F1480021B0EE485AF0EE484AB0EE484A59
:102D4000F0EE483AB0EE493AF1EE002AB0EE482AE9
:102D5000F0EE481AB0EE481AF0EE480AB1EE000A5A
:102D6000F83004F051F80021B0EE485AF0EE484A2D
:102D7000B0EE484AF0EE483AB0EE493AF1EE002A99
:102D8000B0EE482AF0EE481AB0EE481AF0EE480AC3
:102D9000B1EE000AD94804F037F8D8480021B0EE67
:102DA000485AF0EE484AB0EE484AF0EE483AB0EEE3
:102DB000493AF1EE002AB0EE482AF0EE481AB0EE99
:102DC000481AF0EE480AB1EE000AF83004F01CF898
:102DD0000021B0EE485AF0EE484AB0EE484AF0EE14
:102DE000483AB0EE493ADFEDC68AF0EE682ADFEDE8
:102DF000C59AF0EE481AB0EE481AB0EE692A9FED77
:102E0000C2AAF0EE4A0ADFEDC1AABB48B0EE6A0AD8
:102E1000503003F0F9FFB9480021B0EE485AF0EE07
:102E2000484AB0EE484AF0EE483AB0EE493AF0EE81
:102E3000682AB0EE692AF0EE481AB0EE481AF0EEB1
:102E40004A0AB0EE6A0AA83803F0DEFFAB48002158
:102E5000B0EE485AF0EE484AB0EE484AF0EE483A32
:102E6000B0EE493AF0EE682AB0EE692AF0EE481A60
:102E7000B0EE481AF0EE4A0AB0EE6A0A503003F09B
:102E8000C3FF0021B0EE485AF0EE484AB0EE484A7F
:102E9000F0EE483AB0EE493AF0EE682AB0EE692A10
:102EA000F0EE481AB0EE481AF0EE4A0AB0EE6A0A9E
:102EB000974803F0A9FF0021B0EE485AF0EE484AC7
:102EC000B0EE484AF0EE483AB0EE493ADFED919A5A
:102ED000F0EE692A9FED90AAF0EE481AB0EE481A7B
:102EE000B0EE4A2ADFED8D8A8948F0EE680AB0EE2E
:102EF000680AF83003F088FF0021B0EE485AF0EE7F
:102F0000484AB0EE484AF0EE483AB0EE493AF0EEA0
:102F1000692AB0EE4A2AF0EE481AB0EE481AF0EEEE
:102F2000680AB0EE680A7E4803F06EFF7C48002114
:102F3000B0EE485AF0EE484AB0EE484AF0EE483A51
:102F4000B0EE493AF0EE692AB0EE4A2AF0EE481A9D
:102F5000B0EE481AF0EE680AB0EE680AF83003F0F6
:102F600053FF0021B0EE485AF0EE484AB0EE484A0E
:102F7000F0EE483AB0EE493AF0EE692AB0EE4A2A4D
:102F8000F0EE481AB0EE481AF0EE680AB0EE680AA1
:102F9000644803F039FF0021B0EE485AF0EE484A89
:102FA000B0EE484AF0EE483AB0EE493AF2EE082A5E
:102FB000B0EE482AF0EE481AB0EE481AF0EE480A91
:102FC000B1EE000A584803F01FFF0021B0EE485A46
:102FD000F0EE484AB0EE484AF0EE483AB0EE493AD0
:102FE000DFED528AF0EE682ADFED519AF0EE481AD2
:102FF000B0EE481AB0EE692A9FED4EAAF0EE4A0AEA
:10300000DFED4DAA4848B0EE6A0A503003F0FCFEEE
:1030100045480021B0EE485AF0EE484AB0EE484A22
:10302000F0EE483AB0EE493AF2EE042AB0EE482A01
:10303000F0EE481AB0EE481AF0EE480AB1EE000A77
:10304000F83003F0E1FE0021B0EE485AF0EE484AB5
:10305000B0EE484AF0EE483AB0EE493AF2EE042AB1
:10306000B0EE482AF0EE481AB0EE481AF0EE480AE0
:10307000B1EE000A314803F0C7FE30480021B0EE3F
:10308000485AF0EE484AB0EE484AF0EE483AB0EE00
:10309000493AF0EE682AB0EE692AF0EE481AB0EE2E
:1030A000481AF0EE4A0AB0EE6A0AA83803F0ACFEFD
:1030B000B0EE485AF0EE484AB0EE484AF0EE483AD0
:1030C000B0EE493AF0EE682AB0EE692AF0EE481AFE
:1030D000B0EE481AF0EE4A0AB0EE6A0ABDEC068B72
:1030E00000211648BDE81040503003F08DBE0000AE
:1030F000000000006F12833A0C080020FC09002039
:103100000000804600401C460080BB440000E144B3
:10311000440B00200000FA450000FA4400007A4405
:10312000340D00200C120020D40E002000803B46FD
:1031300000803B450000484400009644C410002035
:1031400010B5264802F0E2F92448F83002F0DEF922
:10315000234802F0DBF92248F83002F0D7F9214881
:1031600002F0D4F91F48F83002F0D0F91E4802F0FE
:10317000CDF91D48F83002F0C9F91C4802F068F892
:103180001A48F83002F064F8194802F061F8194C56
:10319000A06A50B1FEF758F9A16A401A322804D843
:1031A0000221154802F050F808E09FED140A124879
:1031B00001F0E5FF0021104802F046F80E4802F049
:1031C00047F80B48F83002F0A1F90D4802F09EF9DB
:1031D0000948BDE81040F83802F098B92C040020E6
:1031E0001C0600200C080020FC090020EC0B00202D
:1031F000DC0D002084000020BC1100200000000035
:10320000CC0F002010B501220E490F48FFF782F8BD
:103210000C4901221B390D48FFF77CF809490122AE
:10322000891F0B48FFF776F806490122C91E094895
:10323000FFF770F803490122BDE81040491F064816
:10324000FFF768B81F000020BC0200204C030020DC
:10325000940300202C0200207402002010B50848BE
:103260000078002808D0FEF7EFF806490968401AF0
:10327000642803D8012010BD002010BD002010BD1F
:10328000280100202C0100202DE9F04304462DEDFB
:10329000028B83B04FF00008CDF80880F7A12046DC
:1032A000FDF774F908B3F7A12046FDF76FF920B3D5
:1032B0000622F6A12046FDF7B2F8A71D08B30522A5
:1032C000F4A12046FDF7ABF8F44D70B30622F4A14B
:1032D0002046FDF7A4F84FF0010905F1800600280B
:1032E0007CD02078242875D0C4E0012002F0B4FA04
:1032F00003B0BDEC028BBDE8F083002002F0ACFA15
:10330000F6E70A2202A9A01DFDF751F8CDF80480C6
:103310000299B942ECD001A902F050FD0028E7D093
:10332000BDF8040002F056FAE2E7FFE7641D0A2246
:1033300002A92046FDF73BF80746029EA642D7D0D9
:1033400030782C28D4D1761C0A2202A93046FDF709
:103350002EF88146029CB442CAD020782C28C7D1CE
:10336000641C0A2202A92046FDF721F806460298AD
:10337000A042BDD002F06AFE10B102F0EDFAB7E74C
:10338000287A80B100EE106AB8EEC01A00EE107A0A
:10339000F8EEC00A00EE109AB8EEC00A02F0B4FAD5
:1033A000C8B185F8088000EE109AB8EEC00A85ED25
:1033B0000F0A00EE107AB8EEC00A85ED100A00EE92
:1033C000106AB8EEC00A85ED110AFEF73DF8A86450
:1033D0008EE703E038E002F0BFFA89E70A2202A98B
:1033E000A01DFCF7E4FF04460298B84280D0FFF726
:1033F00035FF002884D000F07FFB00EE904AF8EE05
:10340000E00A30EE200A86ED180ADFEDA70AA74988
:1034100003E030EE600A86ED180A96ED180A10EE09
:10342000100A8842F5DCA24903E030EE200A86ED5E
:10343000180A96ED180A10EE100A8842F5D885F899
:103440001A9085F8198053E760784C2812D1A0783B
:10345000312802D1E1782C2932D0322802D1E1780A
:103460002C292DD0312805D1E078322802D12079BD
:103470002C2825D006228FA12046FCF7D0FFE8B3E8
:1034800004228EA12046FCF7CAFF00287DD08DA122
:103490002046FDF77BF8002878D005228BA1204636
:1034A000FCF7BDFF002872D004228AA12046FCF759
:1034B000B6FF00286CD02078651D242869D036E13D
:1034C000E078322803D000261EB1601D02E00126FC
:1034D000FAE7201D07460A2202A93846FCF767FFD3
:1034E0000299B942AFD00428ADD2A178312900D1D8
:1034F00068720EB93229A6D1A872F9E6FFE70A224E
:1035000002A9A01DFCF753FF04460298B8429AD0C6
:10351000012C01D00C2C19D1704801F08BFF86EDE5
:10352000020A6E48F83001F085FF86ED030A96ED39
:10353000020A6A4801F084FF684896ED030AF830F1
:1035400001F07EFF85F80E9085F80980022C01D0ED
:103550000C2CD2D1624801F06DFF86ED040A604860
:10356000F83001F067FF86ED050A96ED040A5C4825
:1035700001F066FF5A4896ED050AF83001F060FF49
:1035800085F8109085F80A80B2E603E02AE061E051
:10359000B2E0BEE0241D0A2202A92046FCF707FF84
:1035A0008046029FA742A8D038782C28A5D17F1C3E
:1035B0000A2202A93846FCF7FAFE01460298B842F0
:1035C0009BD0B8F1000F01D0012000E00020A874CA
:1035D00000EE101AB8EEC00A86ED080AFDF734FFB7
:1035E000706285E69FED3F8A85ED0F8A85ED108A32
:1035F00085ED118A85ED188A85ED198A85ED1A8A7F
:1036000085F8098085F80A8085F8138085F812808E
:1036100086ED088A85F8178086ED0D8A86ED0E8A7C
:1036200086ED078AB0EE480A2F4801F0A5FD2E4826
:10363000B0EE480AF83001F09FFDB0EE480A2B4882
:1036400001F09AFDB0EE480A294801F095FD00F01E
:1036500025F94DE6641D0A2202A92046FCF7A7FEC3
:103660000299A14290D000EE100ADFED220AB8EED6
:10367000C00A20EE200A86ED070A39E6244752499F
:10368000502C310024475249502C300024464C49DC
:10369000502C0000244348532C000000040000205C
:1036A000245455524E2C00000000B4430000344313
:1036B000000034C3245A45524F2C00002453572C89
:1036C000000000002453544F5000000024413132C8
:1036D0002C000000244C332C000000000C080020BB
:1036E000FC09002000000000EC0B0020DC0D002095
:1036F000BC110020A96892370A2202A9201DFCF7FC
:1037000056FE0299241DA142A3D00728A1D2E87435
:10371000EEE5607850280AD1A078492807D1E078F2
:10372000352804D3372802D820792C281FD0052229
:1037300025A12046FCF773FE58B3052224A120469C
:10374000FCF76DFE002884D10A2202A9601DFCF757
:103750002EFE0299A94290D012288ED20F2829D08D
:1037600010282AD060B3C0B200F06CF9C0E50A227C
:1037700002A9601DFCF71BFE01460298A842C7D0B3
:10378000E2782020353A904001B90004124988615E
:10379000AEE5641D0A2202A92046FCF708FE029944
:1037A000A142B5D000EE100A0020B8EEC00A00F029
:1037B0009BFB9DE502F08EFA9AE502F015FB97E57A
:1037C00000F06CF894E50000245357442C000000EE
:1037D000244143542C0000000020024030B5024632
:1037E000264B9A4222D1264A264B274C0C2908D236
:1037F000DFE801F00706080A0C0E10121416181A5A
:103800001F4830BD901C30BD101D30BD901D30BD17
:103810001C4830BD981C30BD181D30BD981D30BDF2
:10382000194830BDA01C30BD201D30BD174B9A4239
:10383000FBD1174A174B184C0C29F6D2DFE801F0E0
:103840000607090B0D0F11131517191BEDE710488B
:1038500030BD901C30BD101D30BD901D30BD0D48D9
:1038600030BD981C30BD181D30BD981D30BD0A48B4
:1038700030BDA01C30BD201D30BD000094010020D3
:10388000640100205C0100207C010020BC010020BC
:10389000740100206C0100208401002010B515483F
:1038A00000240470144804701448047001F072FA83
:1038B00013480470134804701348047013480470CC
:1038C0001348047014489FED130A80ED000A134852
:1038D00080ED000A124880ED000A12480470124878
:1038E000047012480470124880ED000ABDE81040D0
:1038F00002F066BC210000202200002020000020F1
:10390000230000201B0000201600002040010020A2
:103910004101002000000000400000204400002081
:10392000480000200D0000200E000020170000209D
:10393000A000002070B5164C2078012826D1154D26
:1039400028780F2822D041F2883002F0C5FE18B145
:10395000BDE8704002F096BB0F4810490078097826
:10396000084303D0BDE8704002F08CBB287802F019
:103970009FFB10B102F0FCFC01E002F01BFD20787F
:10398000012803D0BDE8704001F004BA70BD00000A
:1039900020000020210000204001002041010020E3
:1039A0007047000030B593B0302107A8FCF7C7FD81
:1039B000142102A8FCF7C3FD00252048016841F04E
:1039C00080510160006800F0805001901C4801683F
:1039D00041F440410160006800F440400190012042
:1039E00007900004089002240D9480010E90062098
:1039F0000F90B420109011940420129007A8FDF7A6
:103A000001FF08B1FCF72DFFFDF7C0FD08B1FCF781
:103A100028FF0F200290039404954FF4A0500590C6
:103A20004FF480500690052102A8FDF7E9FD00281B
:103A300001D0FCF716FF13B030BD00004038024043
:103A4000007000402DE9F0410746384602F03AFE8A
:103A50001F4D032658B3384602F031FB01001D48C4
:103A60004FF0000405D01C49097829B31B49097897
:103A700011B307700120287002F096FB18480470FB
:103A800018480470184804701848047018480470E6
:103A9000384602F014FB00F02FFF384602F008FB16
:103AA000002812D0BDE8F041072002F07DBB2E7047
:103AB000BDE8F04101F06EB92E7004700D490F2081
:103AC0000870BDE8F04101F065B9BDE8F081000083
:103AD00020000020210000201200002014000020FF
:103AE000230000201B0000201600002040010020C1
:103AF00041010020220000200348D0ED000A0348C5
:103B000090ED000AFFF710B82401002020010020EA
:103B100070B52DED028B4C4D05F18004E87B00283B
:103B200055D0012825D0FDF78FFCE16F401A40F6F3
:103B3000B83188421AD3454801F07CFC84ED020A72
:103B40004248F83001F076FC84ED030A404801F069
:103B500071FC84ED040A3E48F83001F06BFC84ED02
:103B6000050A01202874A8730020E873BDEC028BBD
:103B700070BD364801F05EFC9FED368A334830EE6A
:103B8000080A01F05DFC3148F83001F053FCDFED2C
:103B9000328A2E4830EE280AF83001F051FC2C48C9
:103BA00001F048FC30EE280A294801F049FC284879
:103BB000F83001F03FFC264830EE080AF83001F0FA
:103BC0003FFCFDF741FCE0670220E873CEE7A87BED
:103BD000F8B1687A01282ED002282FD0032830D0DF
:103BE000DFED1E0A94ED020A9FED1D1A00EEC10AD8
:103BF00094ED038A00EE818A144801F021FCB0EEB6
:103C0000480ABDEC028B1148BDE87040F83001F065
:103C100017BC0E4801F00EFC0C4801F011FC0B48DB
:103C2000F83001F007FCBDEC028B0848BDE870409D
:103C3000F83001F005BCDFED0B0AD3E7DFED0A0A2F
:103C4000D0E7DFED0A0ACDE7040000200C080020D1
:103C5000FC0900207CD9203F7CD920BF0000000057
:103C6000CDCC8C3FDB0FC940E4CB9641D253FB4116
:103C700010B52DED028B9FED230A2348C17B00294F
:103C80003CD1017C39B1807A012816D0022817D0A6
:103C9000032818D019E01D4801F0CCFB1B4801F0A7
:103CA000CFFB1A48F83001F0C5FBBDEC028B17487A
:103CB000BDE81040F83001F0C3BB9FED150A04E0E9
:103CC0009FED140A01E09FED140A0F488030D0EDFB
:103CD000040A70EE800A90ED051A31EE408AB0EECB
:103CE000600A0A4801F0ACFBB0EE480ABDEC028B5A
:103CF0000648BDE81040F83001F0A2BBBDEC028BD5
:103D000010BD00000000000004000020FC0900209D
:103D1000DB0FC940E4CB9641D253FB4170B52DED8A
:103D2000028B9FED2D0A2D4D05F18004287D002882
:103D30000AD0E87CDFED2A0A072835D2DFE800F058
:103D4000342326292C2F3200264801F073FB84ED02
:103D50000B0A2448F83001F06DFB84ED0C0A94ED59
:103D60000B0A204801F06CFB1E4894ED0C0AF83059
:103D700001F066FBFDF768FBC82801D90120287512
:103D8000BDEC028B70BDB0EE600A0DE09FED160A2F
:103D90000AE09FED160A07E0B0EE600A04E09FED2E
:103DA000140A01E09FED130AD4ED0B0A70EE800AAD
:103DB00094ED0C1A31EE408AB0EE600A094801F029
:103DC0003FFBB0EE480ABDEC028B0648BDE87040F0
:103DD000F83001F035BB00000000000004000020B6
:103DE000DB0F4941CC0F0020D253FB41DB0FC94010
:103DF000DB0FC941E4CB1642F0B593B007467879A2
:103E0000801DC5B200242A46394601A8FCF752FBA2
:103E1000002301AE04E0F05C2044C4B25B1CDBB2C2
:103E2000AB42F8D397F84600A04202D1012013B06C
:103E3000F0BD0020FBE7704770B50446002594F8FC
:103E4000470008284BD2DFE800F0040B10151A1FBA
:103E50002E40EF2946D12170012084F8470041E02F
:103E60006170022084F847003CE0A170032084F8D0
:103E7000470037E0E170042084F8470032E0217108
:103E8000052084F847002DE0617121B1402906D951
:103E900084F8475026E0072084F8470022E00620F7
:103EA00084F847001EE094F84800421C204484F83F
:103EB0004820817194F848006179884212D14734D2
:103EC00065702078401C20700CE084F8461084F85F
:103ED00047502046FFF790FF08B1012070BD04F85D
:103EE000475F6570002070BD2DE9F0412DED028B1C
:103EF000F0EE408A0024184E0125184F9FED188AD5
:103F0000022819D334703D70B0EE480A154801F00C
:103F100033F9B0EE480A144801F02EF9B0EE480A21
:103F2000124801F029F9B0EE480ABDEC028B1048A6
:103F3000BDE8F04101F020B900F086FB0D48C0ED6E
:103F4000008A0D4880ED008A35703C700B48046093
:103F5000BDEC028BBDE8F0811B0000204101002078
:103F600000000000EC0B0020E40C0020DC0D002021
:103F7000BC110020B8000020BC000020140100206B
:103F800000B52DED028B87B0FDF75EFA1C49CA79AA
:103F9000002A31D101F580721368C31A642B2BD328
:103FA000106091ED1C0A91ED1B8AD1ED1D8A087AF3
:103FB00028B19FED140AB0EE408AF0EE408AD1EDB0
:103FC0001F0ACDED010A0E488030D0ED000ACDED7C
:103FD000020AD1ED1E0ACDED030A01F0A3FD8DED1D
:103FE000040AB0EE480A01F09DFD8DED050ACDED05
:103FF000068A01A803F08EFC07B0BDEC028B00BD61
:10400000040000200000000070B5124D05F180048E
:10401000687C00280AD094ED060AD4ED070ABDE8B2
:10402000704030EE200A0C4801F00ABA0A4801F04C
:1040300001FA84ED060ADFED090AC4ED070A064815
:1040400001F0FEF9FDF700FAC82801D901206874D3
:1040500070BD000004000020D40E0020000000000D
:1040600070B52DED068BDFED699A694D287A002831
:104070000DD001F071FCB0EE690ABDEC068BB0EE1C
:10408000401AF0EE400ABDE8704000F061BFFDF755
:10409000DBF9A96C401AB0F5967F05D9C5ED0F9AEA
:1040A000C5ED109AC5ED119A01F0C2FED5ED0F0ACB
:1040B00070EE800A9FED570A80EE808AD5ED100AD7
:1040C000C0EE808A95ED110ADFED530A20EE209AAA
:1040D000FFF7C4F8E8B119EE100A5049884218DA1F
:1040E00019EE100A4E49884213D218EE101A4D48A4
:1040F00081420CDC18EE102A4B498A4207D818EE90
:10410000902A824203DC18EE900A884201D90120ED
:1041100000E000203E4C8034C0B3687E28B9FFF731
:10412000EBFC84ED160A012068769FED40AADFEDD6
:1041300040AADFED409AFFF7DFFCF0EE400A94ED75
:10414000160AFEF7F1FC60EE0A0A94ED150A40EE3D
:104150006A0AF4EEE90AF1EE10FA01DDF0EE690AFE
:104160009FED350AF4EEC00AF1EE10FA01D2F0EE3E
:10417000400A9FED321A94ED170AF0EE411A01F051
:10418000D1FA84ED170A39EE009A04E0FFE7002027
:104190006876C4ED179A94ED110A39EE001A18EEFC
:1041A000100A27499FED270A884201DDB0EE408AB8
:1041B00018EE102A2448DFED250A824201D9B0EE1C
:1041C000608A18EE902A8A4201DDF0EE408A18EEED
:1041D000901A814201D9F0EE608A11EE100A1C4952
:1041E000884201DD9FED1B1A1B4911EE100A88421F
:1041F00001D99FED1A1AF0EE680AB0EE480ABDEC3C
:10420000068BBDE8704000F0A3BE00000000000077
:104210000400002000007A44A96892376F12833AA4
:104220006F1283BA0AD7A33C0AD7A3BC0AD7233D8F
:104230000AD7233C9A99993F9A9999BF0BD7A33CE7
:1042400047E1DA4047E1DA4047E1DAC047E1DAC066
:104250001A888A411A888A411A888AC11A888AC1AA
:1042600010B58AB0CC0718D18C0716D45205120CA1
:104270000092002201925B051B0C02930392CB0873
:10428000059306920122079208920E220992C1F329
:10429000800104916946FCF757FB0AB010BD00008D
:1042A00070B50021114C0123114A022802D321705C
:1042B000137070BD0F4D28700F4D85ED000A104D25
:1042C0009FED0E0A85ED000A237011700D4A1160F2
:1042D0000D4900EB400001EBC00040690B4908604C
:1042E000FDF7B2F80A49086070BD00002300002005
:1042F0004001002030010020F000002000000000FC
:10430000F400002034010020602900203801002042
:104310003C01002070B5284C2078002828D0FEF7FA
:104320009DFF9FED261A264A002318B3FFF7E4FBF2
:104330002448F0EE400A90ED000AFEF7F5FB10EE7F
:10434000100A2149214E224DB0F17E5F17DA10EE9E
:10435000100A10F1814F12D2237081ED001A86ED00
:10436000001A82ED001AFDF76FF82860012070BD79
:10437000002070BD237082ED001A012070BDDFEDBA
:10438000150A20EE200A144B10EE100A984201DDA7
:104390009FED120A124B10EE100A984201D99FEDC0
:1043A000110A81ED001A86ED001A82ED000AFDF770
:1043B0004BF82860002070BD1E00002000000000A7
:1043C00048000020E40000204000002044000020BD
:1043D0004C00002000803B4500C8AF4700C8AF47F5
:1043E00000C8AFC700C8AFC770B52DED048BFDF78F
:1043F0002BF80546454801F020F8F0EE408A434886
:10440000F83001F01AF8B0EE408A414801F015F892
:10441000B1EE409A3E48F83001F00FF8B1EE402A74
:10442000DFED3C1A68EEA10A28EE210A29EE211AD6
:1044300062EE211A384C30EE802A32EE012A72EEFA
:10444000212AB5EE002A62EE822AC4ED1C2A70EE03
:10445000602A72EEC12A72EEA12A22EE822A84ED2F
:104460001B2AF1EE600A30EEC00A30EE010A9FED21
:104470002B1A70EE210A80EE810A84ED1D0A04F1E8
:1044800080067068F0B3281A00EE900A9FED241A97
:10449000F8EE600A80EE818A756094ED1E9AF6EE61
:1044A000000A20EE080A00EE209AB0EE490A02F057
:1044B00005FDF0EE408AB0EE490A02F0A7FDD4ED0A
:1044C0001C0A94ED1B1A94ED1F2A60EEA81A41EE07
:1044D000401A01EE882A84ED1F2A20EE800AD6EDCC
:1044E000000A01EE280A40EE080AC6ED000A94ED23
:1044F0001E0AD4ED1D0A00EE880A84ED1E0ABDECEA
:10450000048B70BDFFE77560F9E700002C04002004
:104510001C060020E3A59B3D04000020703DCA3F1F
:1045200000007A4470B52DED028B3A4E96ED088A64
:10453000DFED398A0024A6F18005287B002814D0FD
:10454000286C00EE900A012410EE900A334988424C
:1045500007DA10EE900A3249884202D2B0EE688A39
:1045600003E09FED300A20EE808A54B9FCF76CFF1F
:10457000716A401AB0F5967F03D90020A874C6ED81
:10458000088AA87C04432CD018EE100A26498842D9
:1045900001DD9FED268A264918EE100A884201D9CE
:1045A0009FED248A9FED240A28EE008A2348B0EE6E
:1045B000480A00F0E1FD2148B0EE480AF83000F06A
:1045C000DBFDB1EE480A1E48B0EE408A00F0D4FD93
:1045D000B0EE480ABDEC028B1A48BDE8704000F00E
:1045E000CBBDB0EE680A154800F0C6FD1348B0EE2A
:1045F000680AF83000F0C0FDB0EE680A104800F01C
:10460000BBFDB0EE680ABDEC028B0E48BDE8704001
:1046100000F0B2BD84000020000000000000A041B6
:104620000000A0C19A99193F0080BB440080BB44A0
:104630000080BBC40080BBC45077D63DEC0B00208B
:10464000DC0D0020BC11002010B5022815D20B494A
:1046500008700C499FED0A0A81ED000A0A4A002100
:1046600011600A4900EB400001EBC00040690849B5
:104670000860FCF7E9FE0749086010BD1001002042
:1046800000000000BC000020140100206029002070
:10469000180100201C0100202DE9F0472DED048BAE
:1046A000DFED7C9ADFED7C8AB3EE0E9AFCF7CCFE50
:1046B0007A497B4A097801EB410102EBC101DFF83D
:1046C000E4C19CF80020002A2BD08A7C00259FEDB5
:1046D000768A764F764C01266AB1CA7C5AB1D1F8F7
:1046E0001480744A744BD2F80090C8451DD04E69AE
:1046F0001660186034E0B0EE480A704800F03CFDE7
:10470000B0EE480A6E4800F037FDB0EE480A6D483A
:1047100000F032FDB0EE480A6B4800F02DFD256038
:104720003E70BDEC048BBDE8F0871A68821A322A0D
:1047300016D9B0EE480A614800F01EFDB0EE480AF6
:104740005F4800F019FDB0EE480A5E4800F014FD25
:10475000B0EE480A5C4800F00FFD25603E70E0E7CF
:104760002268EAB3821A00EE102AF8EE400A9FEDA2
:10477000571A80EE810A2060486800EE900AF8EE31
:10478000601AC1EE810AB1F90E0001EE100AB8EE0E
:10479000C11A61EE200AB2EE041A20EE811A4C48CA
:1047A000D0ED000A41EE000AC0ED000A494890ED44
:1047B000000A70EE600A484910EE900A884222DA38
:1047C00010EE900A454988421DD28CF80050B0EE98
:1047D000480A3A4800F0D0FCB0EE480A384800E0F9
:1047E0000FE000F0C9FCB0EE480A364800F0C4FC07
:1047F000B0EE480ABDEC048BBDE8F047324800F04B
:10480000BBBC20608DE720EEA90A354910EE100AE6
:10481000884201DDB0EE680A10EE100A3149884284
:1048200001D99FED310AB5EEC00AF1EE10FA06DDAE
:1048300010EE100A2D49884201DAB0EE490AB5EEB1
:10484000C00AF1EE10FA06D210EE100A284988428A
:1048500001D2BBEE0E0ADFED270A20EE208A1748B0
:10486000B0EE480A00F088FCB0EE480A144800F0A8
:1048700083FCB1EE480A1348B0EE408A00F07CFC9D
:10488000B0EE480ABDEC048BBDE8F0470E4800F0DE
:1048900073BC00003333B33E000096431001002088
:1048A000602900201B0000200000000041010020C2
:1048B00014010020180100201C010020EC0B002036
:1048C000E40C0020DC0D0020BC11002000007A4424
:1048D000BC000020B80000200000C8410000C8C192
:1048E00000009643000096C3000096C30000F0410C
:1048F0000000F0C15077D63D70B52DED088B9FEDCF
:10490000808A002801D0012400E000247D4D287B0E
:10491000A0427CD054B1F1EE049ADFED7B8A9FED8A
:104920007BAA9FED7B9ADFED7BAA09E0F1EE029A6C
:10493000DFED798A9FED79AAB0EE689ADFED78AA6B
:104940000021B0EE485AF0EE484AB0EE484AF0EE88
:10495000483A9FED74BAB0EE4B3ADFED73BAB0EE61
:10496000482AF0EE481AF0EE6B2AB0EE481AF0EE44
:10497000480AB0EE690A6D4802F046FA6B48002119
:10498000B0EE485AF0EE484AB0EE484AF0EE483AE7
:10499000B0EE4B3AF0EE6B2AB0EE482AF0EE481A31
:1049A000B0EE481AF0EE480AB0EE690AF83002F0AC
:1049B0002BFA0021B0EE485AF0EE484AB0EE484AD1
:1049C000F0EE483AB0EE4B3AF0EE6B2AB0EE482AE1
:1049D000F0EE481AB0EE481AF0EE480AB0EE690A56
:1049E000534802F011FA0021B0EE485AF0EE484A5E
:1049F000B0EE484AF0EE483AB0EE4B3AF0EE6B2A91
:104A0000B0EE482AF0EE481AB0EE481A00E073E023
:104A10004748F0EE480AB0EE690AF83002F0F4F9BF
:104A200042480021B0EE485AF0EE484AB0EE484AFB
:104A3000F0EE483AB0EE4B3AF0EE6A2AB0EE492A70
:104A4000F0EE481AB0EE481AF0EE4A0AB0EE680AE4
:104A5000503002F0D9F936480021B0EE485AF0EE55
:104A6000484AB0EE484AF0EE483AB0EE4B3AF0EE23
:104A70006A2AB0EE492AF0EE481AB0EE481AF0EE73
:104A80004A0AB0EE680AA83802F0BEF928480021A8
:104A9000B0EE485AF0EE484AB0EE484AF0EE483AD6
:104AA000B0EE4B3AF0EE6A2AB0EE492AF0EE481A20
:104AB000B0EE481AF0EE4A0AB0EE680A503002F042
:104AC000A3F90021B0EE485AF0EE484AB0EE484A49
:104AD000F0EE483AB0EE4B3AF0EE6A2AB0EE492AD0
:104AE000F0EE481AB0EE481AF0EE4A0AB0EE680A44
:104AF000104802F089F92C73BDEC088B70BD0000E2
:104B000000000000040000200080BB440000484476
:104B100000401C4500C05A4600007A440000FA4399
:104B20000000FA456F12833A0000B4422C040020C2
:104B30001C0600206407002070B5194C6068401CFA
:104B4000606008239D0104F1100229461548FDF715
:104B500005FF207880F0010020706E1E30B9082318
:104B600004F1080231460F48FDF7F8FE607880F046
:104B70000100607060B10A4A0823183231460A48C1
:104B8000FDF7ECFE6068092801D10020606070BD6F
:104B9000034A0823203229460348FDF7DFFEF1E7E8
:104BA0005401002094010020BC0100202DE9F05F99
:104BB000FCF74AFC5F49604A097801EB410102EBCE
:104BC000C101DFF878C19CF80020002A27D08A7C38
:104BD0000027DFED5B0A5B4B5B4C5C4DDFF870A19F
:104BE0005C4E4FF001098AB1CA7C7AB1D1F814B099
:104BF000594ADFF86881D2F800E0F34511D0D1F8C6
:104C00001490C2F80090C8F8000019E0C3ED000A43
:104C1000C4ED000AC5ED000A37608AF80090BDE8CF
:104C2000F09FD8F80020821A322A09D9C3ED000A71
:104C3000C4ED000AC5ED000A37608AF80090EEE77F
:104C40003268E2B3821A00EE102AB8EE400ADFEDB5
:104C5000441A80EE211A3060486800EE100AB8EE5F
:104C6000402A82EE210AB1F90E0001EE900AF8EE18
:104C7000E11A21EE800AF2EE041A60EE211A394898
:104C800090ED000A01EE810A80ED000A364890EDB1
:104C9000001A31EE400A3549354E10EE100A8842AE
:104CA00014DA10EE100A334988420FD28CF80070E3
:104CB000C3ED000AC4ED000AC5ED000A00E003E000
:104CC000FCF7C2FB3060AAE73060A8E79FED2A1A24
:104CD00020EE010A294910EE100A884201DD9FEDFD
:104CE000280A284910EE100A884201D99FED260AA9
:104CF000B5EEC00AF1EE10FA06DD10EE100A2349F7
:104D0000884201DAB3EE0E0AB5EEC00AF1EE10FAEF
:104D100006D210EE100A1E49884201D2BBEE0E0ADE
:104D2000C3ED000A84ED000AC5ED000AFCF78CFB18
:104D3000306074E73001002060290020230000204B
:104D40000000000040000020440000204800002037
:104D50004001002034010020380100203C010020E7
:104D600000007A44F4000020F00000200000C84158
:104D70004C0000200000C8C13333B33E0000FA43AA
:104D80000000FA430000FAC30000FAC30000F0413B
:104D90000000F0C10148407BFFF7AEBD04000020D9
:104DA00010B50446C4F30000FDF7C0FDC4F3400095
:104DB000FDF7B4FDC4F38000FDF7C8FDC4F3C000E7
:104DC000FDF7BCFD44F30010401C00F0B9F844F3BB
:104DD0004010401C00F0ACF844F38010401C00F080
:104DE00067F844F3C010401C00F06AF844F3002058
:104DF000401C00F06DF844F34020401C00F070F8B7
:104E000044F38020401C00F073F844F3C020401CA1
:104E100000F076F844F30030401C00F079F844F3D9
:104E20004030BDE81040401C00F07AB870B5044630
:104E30000D462046FCF747F92068416941F0020120
:104E400041612068416941F01001416115492068C4
:104E5000884210D114480460856200231A4619461E
:104E60002046FFF7FDF92046BDE8704000231A46B2
:104E70000C21FFF7F5B90D49884211D10A482C30B1
:104E80000460856200231A4670212046FFF7E8F986
:104E90002046BDE8704000231A467C21FFF7E0B9A8
:104EA00070BD00000064004014180020006800403D
:104EB000024602210148FCF7BFBA00000018024078
:104EC000024604210148FCF7B7BA0000001802406E
:104ED000024608210148FCF7AFBA00000018024062
:104EE000024610210148FCF7A7BA00000018024052
:104EF000024620210148FCF79FBA0000001802403A
:104F0000024640210148FCF797BA00000018024011
:104F1000024680210148FCF78FBA000000180240C9
:104F200002464FF480710148FCF786BA001802402F
:104F300002464FF480410148FCF77EBA001402405B
:104F400002464FF400610148FCF776BA00100240B7
:104F500010B52DED068BF0EE60AAB0EE41AA9FEDE4
:104F6000788ADFED781ADFED789ADFED788A9FEDA9
:104F7000789A784CF0EE400AB0EE481A94ED180A90
:104F800000F0D0FB84ED180AF0EE481AB0EE691A72
:104F9000F0EE6A0A94ED190A00F0C4FB84ED190AD8
:104FA000F0EE491AB0EE681AF0EE4A0A94ED1A0AC9
:104FB00000F0B8FB84ED1A0A94ED191AD4ED181A12
:104FC00071EE610A9FED642AF0EE602A40EE422AFB
:104FD00031EE211AF0EE411A40EE421A40EE020A7A
:104FE00000EE021A9FED5D0A82EE808AC1EE808A91
:104FF00080EE809AC1EE009A9FED590AB5EEC08A04
:10500000F1EE10FA02DDF0EE480A01E0F1EE480A96
:10501000F5EEC08AF1EE10FA02DDB0EE681A01E09A
:10502000B1EE681AB5EEC09AF1EE10FA02DDF0EEBC
:10503000491A01E0F1EE491AF5EEC09AF1EE10FAC4
:1050400002DDB0EE692A01E0B1EE692AF4EEC00A91
:10505000F1EE10FA01DDB0EE600AB4EEC01AF1EE26
:1050600010FA01DDB0EE410AF4EEC01AF1EE10FACA
:1050700001DDB0EE610AB4EEC02AF1EE10FA01DDF6
:10508000B0EE420A10EE100A364988420BDD9FED61
:10509000361AC1EE000A28EE208A68EEA08A29EEB0
:1050A000209A69EEA09AE07AB8B9304800F0C2F9C7
:1050B00084ED140A2D48F83000F0BCF984ED150A8F
:1050C0002B4800F0B7F984ED160A2948F83000F0B3
:1050D000B1F984ED170A0120E07294ED140ADFEDB6
:1050E000250A08EE200A84ED140A94ED151A08EE3C
:1050F000A01A84ED151A94ED161A09EE601A84EDC3
:10510000161A94ED171A09EEE01A84ED171A1748CB
:1051100000F096F9154894ED150AF83000F090F972
:1051200094ED160A124800F08BF994ED170A104816
:10513000BDEC068BF830BDE8104000F081B90000EE
:105140006F12033C6F12833B51499D3A89C3E43B84
:10515000FDAD803C04000020703DCA3EE3A59B3DB0
:10516000000000000000B4420000B4422C04002003
:105170001C0600206F12833A80ED3B0A704780EDD9
:105180003C0A704770B550F8B82F521C0260038972
:1051900003824A780C7842EA04220281CC788D7826
:1051A00044EA052424B244814D790E7945EA062566
:1051B0002DB285818E79C681D11A0BB28169B8383A
:1051C00013F5805F03DA491CC0F8D01005E0B3F591
:1051D000805F02DD491EC0F8D010AC300189436AFF
:1051E00003FB0122026200EE102AF8EEC00A00EE74
:1051F000101AB8EE401A80EE810AF0EE000A20EE96
:10520000200ADFED0F0A60EE200A90ED000A80EE22
:10521000801A80ED0B1A00EE904A9FED0A1AF8EE04
:10522000E00A60EE810A80EE801A80ED0C1A00EE32
:10523000105AB8EEC00A80ED0D0A80F8386070BDD3
:10524000DB0F49405077D63D80F8E51070470000ED
:1052500070B5044694F8E500002811D0012821D04B
:1052600004F1500502282FD0032841D020469FED9D
:10527000320A00F09EF82046BDE8704000F086B883
:1052800094ED3C0A94ED2C1AB4F8B600C0EE010A75
:1052900000EE100A2046B8EE400A20EE800A00F028
:1052A00088F8E8E794ED3C0A94ED2C1AB4F8B600BF
:1052B000C0EE010A00EE100A2046B8EE400A20EEC9
:1052C000800A00F076F8D6E794ED3B0A284601F014
:1052D000B5FC94ED370A284601F0B1FD284601F0EF
:1052E000B1FC284601F0A8FD204600F062F8C2E7B4
:1052F00094ED3A0A204601F0A1FC94ED360A2046CE
:1053000001F09DFD204601F09DFC204601F094FD3A
:1053100084ED3B0A284601F091FC94ED370A2846BB
:1053200001F08DFD284601F08DFC284601F084FD3A
:10533000204600F03EF89EE70000000030B50D4624
:10534000044611460D4A2868904203D10C48C4F81F
:10535000A00005E00B4A904202D10B48C4F8A0001F
:1053600004F8A41F84F8413084ED020AC4ED030A56
:105370002846FEF733FA606030BD0000006400404C
:10538000141800200068004040180020A83090ED5C
:10539000130A0268BDEEC00A10EE101A091211704D
:1053A00090ED130A0068BDEEC00A10EE101A4170AD
:1053B000704780ED3D0A704710B501F043FD503055
:1053C00001F040FD9FED180A5C304FF4005180ED74
:1053D000000A9FED160A80ED010A018142F2107168
:1053E00041810021C16001618182C18201834183C9
:1053F0008183016241629FED0E0A80F8281080EDE2
:105400000B0A80ED0C0A80ED0D0A80F8381003219C
:1054100080F8391080ED0F0A80ED100A80ED110A36
:1054200080ED120AAC3810BD0000104200401C464E
:105430000000000090ED360A704790ED370A704783
:1054400080ED3A0A7047000070B550F8B82F521C32
:105450000260038903824A780C7842EA04220281BE
:10546000CC788D7844EA052424B244814D790E79B4
:1054700045EA06252DB285818E79C681D11A0BB2F7
:105480008169B83813F5805F03DA491CC0F8D01081
:1054900005E0B3F5805F02DD491EC0F8D010AC30E6
:1054A0000189436A03FB0122026200EE102AF8EE32
:1054B000C00A00EE101AB8EE401A80EE810AF0EE33
:1054C000000A20EE200ADFED0F0A60EE200A90EDC0
:1054D000000A80EE801A80ED0B1A00EE904A9FEDD4
:1054E0000A1AF8EEE00A60EE810A80EE801A80ED7A
:1054F0000C1A00EE105AB8EEC00A80ED0D0A80F8C2
:10550000386070BDDB0F49405077D63D70B504461A
:1055100094F8E500002811D0012821D004F15005AD
:1055200002282FD0032841D020469FED320A00F0F8
:105530009EF82046BDE8704000F086B894ED3C0A25
:1055400094ED2C1AB4F8B600C0EE010A00EE100A71
:105550002046B8EE400A20EE800A00F088F8E8E71E
:1055600094ED3C0A94ED2C1AB4F8B600C0EE010A92
:1055700000EE100A2046B8EE400A20EE800A00F045
:1055800076F8D6E794ED3B0A284601F057FB94EDF8
:10559000370A284601F053FC284601F053FB284601
:1055A00001F04AFC204600F062F8C2E794ED3A0AA6
:1055B000204601F043FB94ED360A204601F03FFC03
:1055C000204601F03FFB204601F036FC84ED3B0A0B
:1055D000284601F033FB94ED370A284601F02FFCF2
:1055E000284601F02FFB284601F026FC204600F05B
:1055F0003EF89EE70000000030B50D460446114617
:105600000D4A2868904203D10C48C4F8A00005E078
:105610000B4A904202D10B48C4F8A00004F8A41F22
:1056200084F8413084ED020AC4ED030A2846FEF7EF
:10563000D5F8606030BD0000006400401418002000
:105640000068004040180020A83090ED130A02685E
:10565000BDEEC00A10EE101A0912117090ED130A77
:105660000068BDEEC00A10EE101A4170704780ED60
:105670003D0A704710B501F0E5FB503001F0E2FB48
:105680009FED180A5C304FF4005180ED000A9FED49
:10569000160A80ED010A0181490041810021C160A3
:1056A00001618182C1820183418381830162416200
:1056B0009FED0E0A80F8281080ED0B0A80ED0C0A91
:1056C00080ED0D0A80F83810032180F8391080ED44
:1056D0000F0A80ED100A80ED110A80ED120AAC3835
:1056E00010BD00002CA09941000080460000000081
:1056F000B5EEC00AF1EE10FA01DAB1EE400A7047D9
:10570000064890F82200002804D0054890F841008F
:10571000202801D000F0CEB800F0B6B80400002078
:105720004C03002010B52DED068BB0EE408AF0EE54
:10573000608AB0EE41AAF0EE61AA38EEC89AB5EEE2
:10574000C08AF1EE10FA04DDF5EEC08AF1EE10FA2F
:1057500018D3B5EEC08AF1EE10FA04D2F5EEC08A85
:10576000F1EE10FA0EDCB0EE680AFFF7C1FFF0EEC2
:10577000409AB0EE480AFFF7BBFFF4EEC09AF1EE94
:1057800010FA01D2012000E0002010B1B0EE6A1A38
:1057900001E0B0EE4A1AB5EEC01AF1EE10FA04D8E4
:1057A000B0EE680ABDEC068B10BDB4EEC19AF1EE06
:1057B00010FA02DD38EE010AF4E7B1EE410AB4EE68
:1057C000C09AF1EE10FA02D238EE410AEAE7B0EEE2
:1057D000680AE7E710B5044600F05CF900F03AF912
:1057E0002146BDE810404FF47A72022000F016BA4C
:1057F00070B503460C46134E96F82000401C00F08E
:105800000705002B02D00CB1A02C01D9002070BDDF
:1058100096F82100854201D1002070BD16F8200FB6
:10582000094900EB800001EB401022461946FAF7C7
:1058300041FE0648317820F81140357000F03AF802
:10584000012070BD04000020B4120020B417002015
:10585000401C00F00700704770B54FF47A740028C0
:1058600002D04FF4967500E0254601D04FF4FA645B
:1058700000F054FA00F0EEF822462946BDE87040E8
:10588000012000F0CBB90000094890F8211090F8F1
:105890002020914206D090F82110491C01F0070108
:1058A00080F82110002180F8221000F003B80000D9
:1058B0000400002010B5114C94F8220000281CD1DF
:1058C00094F8210094F82010884216D00120213449
:1058D00060700B49207831F8102014F82109A1F5E7
:1058E000A06100EB800001EB40110648FCF7E7FDEA
:1058F000002802D0002084F8220010BD04000020FF
:10590000B41700204C03002010B52DED028BF0EEF3
:10591000608AB0EE418AFFF7EBFE10EE100A4FF0FE
:105920007E54A04210DCB0EE680AFFF7E1FE10EEF4
:10593000100AA04208DCB0EE480AFFF7D9FE10EECC
:10594000100A0449884203DD0120BDEC028B10BD22
:105950000020FAE70000204110B52DED028B234C0A
:105960009FED218A84ED0F8A84ED108A84ED118ADF
:10597000FBF76AFDA06484ED188A84ED198A84ED32
:105980001A8A1B48FFF756FD84ED140A1848F830B0
:10599000FFF750FD84ED150A1648FFF74BFD84ED27
:1059A000160A1448F830FFF745FD84ED170A012068
:1059B000E07294ED140A0E48FFF742FD0C4894ED96
:1059C000150AF830FFF73CFD94ED160A0948FFF779
:1059D00037FD94ED170A0748BDEC028BF830BDE89F
:1059E0001040FFF72DBD0000000000000400002063
:1059F0002C0400201C06002010B5FBF725FD0449EF
:105A000000F5967088671020803981F8290010BD54
:105A10008400002070B5FBF717FD04460C4D95F887
:105A20002900002812D005F18006B06F201A0DD48D
:105A30004FF47A724FF45771022000F0EFF815F826
:105A4000290F401E287004F59674B46770BD0000DD
:105A50000400002010B50D4C01202072FBF7F4FC6F
:105A6000E0640020A0766076E0779FED090A04F1FB
:105A7000800181ED1C0A81ED1B0AE07581ED0E0AA3
:105A800081ED0D0ABDE81040FFF766BF040000205D
:105A9000000000000249002081F829007047000042
:105AA00004000020411F052903D9112801D000203E
:105AB000704701207047000070B504460E4D95F800
:105AC0002300FFF7C5FE014695F82400814201D16D
:105AD000002070BD15F8230F084A00EB800002EB90
